S01700007368635F6261736573746174696F6E2E73726563D3
S11300001FC600000C945D1038C6000036C6000000
S113001034C6000032C6000030C600002EC6000000
S11300202CC600002AC6000028C6000026C6000010
S113003024C6000022C6000020C600001EC6000020
S11300401CC600001AC600000C94001D16C6000051
S113005014C600000C94392010C600000EC600001F
S11300600CC600000AC600005761726E696E673ADA
S11300702041636B6E6F776C65646765642072659D
S11300807175657374206E6F7420666F756E64206D
S1130090696E2071756575652028636F756C6420C1
S11300A068617665206265656E20746865206C61A0
S11300B07374207265747279292E0D0A0057617267
S11300C06E696E673A2053656E64657249442066B2
S11300D0726F6D2061636B20666F756E6420696E4C
S11300E02071756575652C20627574205061636B91
S11300F06574436F756E74657220646F6573206EEA
S11301006F74206D617463682E0D0A0052657175F9
S11301106573742071756575652025752069732074
S11301206E6F7720656D7074792E0D0A0052656DBF
S11301306F76696E67207265717565737420667277
S11301406F6D20726571756573742062756666657E
S11301507220736C6F742025752E0D0A0049676E2A
S11301606F72696E672061636B20287265717565B3
S11301707374206E6F742066726F6D207468697377
S113018020646576696365292E0D0A000D0A005204
S113019065717565737420517565756520656D703D
S11301A07479000D0A0020257500202D0052656326
S11301B0656976657249442025752C20427566660A
S11301C0657220736C6F7473005265717565737416
S11301D02051756575652025753A20000D0A0020AB
S11301E025303278004D65737361676554797065A5
S11301F02025752C205061636B6574436F756E7494
S1130200657220256C752C2054696D656F7574209A
S113021025752C2052657472792025752C20446133
S11302207461005265717565737420427566666504
S1130230722025753A20002A2A2A2055415254203A
S1130240757365722074696D656F75742E20496EBF
S1130250707574207761732069676E6F7265642EA0
S1130260202A2A2A0D0A00526570656174696E6736
S113027020726571756573742E0D0A005761726E74
S1130280696E672120526571756573742071756597
S113029075652066756C6C2E205061636B657420E7
S11302A077696C6C206E6F742062652073656E7460
S11302B02E0D0A005265717565737420616464655E
S11302C06420746F2071756575652028257520621A
S11302D079746573207061636B6574292E0D0A004F
S11302E053656E64696E672062726F6164636173E3
S11302F074207265717565737420776974686F759D
S113030074207573696E672071756575652E0D0AA5
S1130310005472756E63617465204D657373616713
S113032065446174612066726F6D20257520746F59
S11303302025752062797465732E0D0A000D0A005C
S11303405265636569766564206761726261676599
S113035020284352432077726F6E6720616674656C
S1130360722064656372797074696F6E293A200033
S113037052656365697665642028414553206B6541
S113038079202575293A200052656365697665648C
S1130390206761726261676520282575206279741F
S11303A06573206E6F74206D756C7469706C652054
S11303B06F66203136293A200057616974696E6787
S11303C020666F7220696E636F6D696E6720646169
S11303D074612E205072657373206820666F7220DA
S11303E068656C702E0D0A0D0A00414553206B653B
S11303F07920636F756E743A2025750D0A0050617B
S1130400636B657420636F756E7465723A20256C36
S1130410750D0A004465766963652049443A2025D0
S1130420750D0A0028632920323031322E2E3230E5
S1130430313420557765204672656573652C2077C5
S113044077772E736D617274686F6D617469632E52
S11304506F72670D0A00736D617274686F6D6174F9
S1130460696320426173652053746174696F6E20FF
S11304707625752E25752E257520282530386C781F
S1130480290D0A000D0A000D0A0054696D656F7587
S1130490745365633D25753B004F6E3D25753B00E8
S11304A03B0050726573737572653D256C643B54F3
S11304B0656D70657261747572653D003B004875C9
S11304C06D69646974793D25752E25753B54656D98
S11304D070657261747572653D003B0054656D70A2
S11304E0657261747572653D0050657263656E7402
S11304F06167653D25753B00486173683D2530386B
S11305006C783B0050617463683D25753B004D6910
S11305106E6F723D25753B004D616A6F723D2575A6
S11305203B003B0025303278004D6573736167658D
S1130530446174613D004D65737361676549443D71
S113054025753B004D65737361676547726F757000
S113055049443D25753B004572726F723D25753BDC
S11305600041636B5061636B6574436F756E7465B2
S1130570723D256C753B0041636B53656E64657217
S113058049443D25753B005265636569766572494A
S1130590443D25753B004D657373616765547970FF
S11305A0653D25753B005061636B6574436F756EE3
S11305B07465723D256C753B005061636B657420F6
S11305C0446174613A2053656E64657249443D2503
S11305D0753B002A2A2A204368617261637465723C
S11305E02069676E6F7265642E2050726573732084
S11305F06820666F722068656C702E202A2A2A0D86
S11306000A002A2A2A20456E746572204145532027
S11306106B6579206E722C204D6573736167655428
S11306207970652C206865616465722065787465ED
S11306306E73696F6E202B206461746120696E2073
S113064068657820666F726D617420746F207365BD
S11306506E642C2066696E697368207769746820FB
S1130660454E5445522E202A2A2A0D0A002A2A2AA7
S113067020577269746520746F20454550524F4D60
S11306802E20456E746572206164647265737320F4
S1130690616E64206461746120283420636861722F
S11306A0616374657273292E202A2A2A0D0A002A8E
S11306B02A2A20526561642066726F6D2045455078
S11306C0524F4D2E20456E746572206164647265CC
S11306D07373202832206368617261637465727376
S11306E0292E202A2A2A0D0A002A2A2A205772692A
S11306F074696E6720746F20454550524F4D2069D0
S113070073206E6F772044495341424C45442E2058
S11307102A2A2A0D0A002A2A2A2057726974696E25
S11307206720746F20454550524F4D206973206EE9
S11307306F7720454E41424C45442E202A2A2A0DEB
S11307400A00734B4B304153535353505050505045
S113075050454547474D4D44442E2E2E41636B531F
S113076074617475730D0A00734B4B3039535353D2
S11307705350505050505045452E2E2E2E2E2E2E76
S11307802E2E41636B0D0A00734B4B303847474D97
S11307904D44442E2E2E2E2E2E2E2E2E2E2E2E2E2A
S11307A02E2E5374617475730D0A00734B4B3032E3
S11307B05252525247474D4D44442E2E2E2E2E2E29
S11307C02E2E2E2E2E5365744765740D0A00734B1E
S11307D04B30315252525247474D4D44442E2E2EE7
S11307E02E2E2E2E2E2E2E2E5365740D0A00734B94
S11307F04B30305252525247474D4D44442E2E2EC8
S11308002E2E2E2E2E2E2E2E4765740D0A002020FD
S113081020202020202020202020202020456E641D
S11308202064617461207769746820454E54455290
S11308302E2053656E64657249442C205061636BAD
S11308406574436F756E74657220616E64204352E3
S11308504320617265206175746F6D6174696361B1
S11308606C6C792061646465642E0D0A002020207C
S11308702020202020202020202020204D6573735C
S11308806167654461746120284444292063616E72
S113089020626520302E2E313720627974657320F2
S11308A0776974682062697473206D6F766564205B
S11308B0746F20746865206C6566742E0D0A0020C0
S11308C020202020202020202020202020204163C0
S11308D06B53656E646572494420285353535329FE
S11308E02C2041636B5061636B6574436F756E7448
S11308F065722028505050505050292C2045727257
S11309006F7220284545292E0D0A00202020202022
S1130910202020202020202020204669656C64733C
S1130920206172653A20526563656976657249444F
S1130930202852525252292C204D657373616765E9
S113094047726F757020284747292C204D657373B3
S1130950616765494420284D4D290D0A0020202057
S113096020202020202020202020202062792061A7
S11309706C6C206E6563657373617279206578743D
S1130980656E73696F6E206865616465722066695F
S1130990656C647320616E64206D65737361676553
S11309A020646174612E0D0A00734B4B7B547D7B74
S11309B0587D7B447D2E2E2E557365204145532052
S11309C06B6579204B4B20746F2073656E642061D6
S11309D0207061636B65742077697468204D65735A
S11309E0736167655479706520542C20666F6C6C54
S11309F06F7765640D0A007A2E2E2E2E2E2E2E2E43
S1130A002E2E2E2E2E2E64697361626C65207772F1
S1130A106974696E6720746F20454550524F4D0DBF
S1130A200A00782E2E2E2E2E2E2E2E2E2E2E2E2EEA
S1130A302E656E61626C652077726974696E6720D9
S1130A40746F20454550524F4D0D0A00774141586F
S1130A50582E2E2E2E2E2E2E2E2E2E777269746543
S1130A6020454550524F4D206174206865782061BF
S1130A7064647265737320414120746F20686578E3
S1130A802076616C75652058580D0A007241412E1C
S1130A902E2E2E2E2E2E2E2E2E2E2E72656164209C
S1130AA0454550524F4D206174206865782061643B
S1130AB064726573732041410D0A00682E2E2E2E38
S1130AC02E2E2E2E2E2E2E2E2E2E74686973206816
S1130AD0656C700D0A002A2A2A2048656C70202A49
S1130AE02A2A0D0A002A2A2A20496C6C6567616C3F
S1130AF0206368617261637465722E20557365208A
S1130B006F6E6C7920302E2E392C20612E2E662C9F
S1130B1020412E2E462E202A2A2A0D0A002A2A2A6D
S1130B2020526563656976656420636861726163F8
S1130B307465722025632028415343494920257553
S1130B4029203D2076616C756520307825782C202D
S1130B50257520627974657320746F20676F2E2069
S1130B602A2A2A0D0A00556E6B6E6F776E20636F0A
S1130B706D6D616E642E0D0A00454550524F4D2037
S1130B8076616C756520617420706F736974696F28
S1130B906E203078257820697320307825782E0DE2
S1130BA00A0049676E6F72696E6720454550524F5F
S1130BB04D2077726974652C2073696E63652077A4
S1130BC072697465206D6F646520697320444953AC
S1130BD041424C45442E0D0A0057726974696E6790
S1130BE02064617461203078257820746F20454535
S1130BF050524F4D20706F7320307825782E0D0A97
S1130C00000D0A000D0A0025303278200025642EDC
S1130C1025303264002D00416674657220656E6370
S1130C2072797074696F6E3A2020004265666F7243
S1130C306520656E6372797074696F6E3A20000086
S1130C4011241FBECFEFD8E0DEBFCDBF11E0A0E07E
S1130C50B1E0E4EAF2E502C005900D92A631B107D5
S1130C60D9F725E0A6E1B1E001C01D92A930B20791
S1130C70E1F70E9438190C945029C2C90000000001
S1130C800000000000000000000000000000000060
S1130C900000000000000000000000000000000050
S1130CA00000000000000000000000000000000040
S1130CB00000000000000000000000000000000030
S1130CC00000000000000000000000000000000020
S1130CD00000000000000000000000000000000010
S1130CE00000000000000000000000000000000000
S1130CF000000000000000000000000000000000F0
S1130D004EE003C04CE001C04AE02F923F924F9264
S1130D105F926F927F928F929F92AF92BF92CF9287
S1130D20DF92EF92FF920F931F93CF93DF938F93F2
S1130D309F93DB01FC01842F43954295A40FB11DC1
S1130D40E89481909190A190B190C190D190E1905C
S1130D50F1900191119121913191419151916191C0
S1130D6071919BE10E9070250E9060250E90502598
S1130D700E9040250E9030250E9020250E901025C3
S1130D800E9000250E90F0240E90E0240E90D024B6
S1130D900E90C0240E90B0240E90A0240E909024A7
S1130DA00E9080248A9509F46894F5E1E82D8490E6
S1130DB0EC2DC490E02F0491E42F4491E52F24906E
S1130DC0E12F5491ED2D1491E92DD490922CE62F1E
S1130DD02490E22F3490EE2D6491EA2D2491E22C9C
S1130DE0A32CEB2D2490EF2DB490E32FF490E72F58
S1130DF03491722D0E9070250E9060250E90502522
S1130E000E9040250E9030250E9020250E90102532
S1130E100E9000250E90F0240E90E0240E90D02425
S1130E200E90C0240E90B0240E90A0240E90902416
S1130E300E9080242EF5FF91EF9181929192A192D0
S1130E40B192C192D192E192F192019311932193C3
S1130E5031934193519361937193DF91CF911F919A
S1130E600F91FF90EF90DF90CF90BF90AF909F9045
S1130E708F907F906F905F904F903F902F90089548
S1130E80F0E12B2C2A24382C3924E22DE32544903C
S1130E90F1E1EA2DE82554905424EB2DE925049042
S1130EA04024682C6B24660C08F469266424B62458
S1130EB06A2C6924660C08F4692664249624220C9E
S1130EC008F429262524A224330C08F439263524D1
S1130ED08324F0E12F2C2E243C2C3D24E22DE32509
S1130EE04490F1E1EE2DEC2554905424EF2DED25A2
S1130EF0049040246C2C6F24660C08F46926642446
S1130F00F6246E2C6D24660C08F469266424D62419
S1130F10220C08F429262524E224330C08F439266B
S1130F203524C324F0E1232E2226302E3126E22D4F
S1130F30E3254490F1E1E22FE02754905424E32F79
S1130F40E12704904024602E6326660C08F4692689
S1130F5064243625622E6126660C08F4692664240E
S1130F601625220C08F4292625242225330C08F4FE
S1130F70392635240325F0E1272E2626342E35265E
S1130F80E22DE3254490F1E1E62FE4275490542424
S1130F90E72FE52704904024642E6726660C08F4A6
S1130FA0692664247625662E6526660C08F469266F
S1130FB064245625220C08F4292625246225330CA2
S1130FC008F4392635244325EDCE00000000000046
S1130FD0000000000000000000000000000000000D
S1130FE000000000000000000000000000000000FD
S1130FF000000000000000000000000000000000ED
S11310000009121B242D363F48415A536C657E77E4
S11310109099828BB4BDA6AFD8D1CAC3FCF5EEE7D4
S11310203B3229201F160D04737A6168575E454CC4
S1131030ABA2B9B08F869D94E3EAF1F8C7CED5DCB4
S1131040767F646D525B40493E372C251A130801A4
S1131050E6EFF4FDC2CBD0D9AEA7BCB58A83989194
S11310604D445F5669607B72050C171E2128333A84
S1131070DDD4CFC6F9F0EBE2959C878EB1B8A3AA74
S1131080ECE5FEF7C8C1DAD3A4ADB6BF8089929B64
S11310907C756E6758514A43343D262F1019020B54
S11310A0D7DEC5CCF3FAE1E89F968D84BBB2A9A044
S11310B0474E555C636A71780F061D142B22393034
S11310C09A938881BEB7ACA5D2DBC0C9F6FFE4ED24
S11310D00A0318112E273C35424B5059666F747D14
S11310E0A1A8B3BA858C979EE9E0FBF2CDC4DFD604
S11310F03138232A151C070E79706B625D544F46F4
S11311000004080C1014181C2024282C3034383CFB
S11311104044484C5054585C6064686C7074787CEB
S11311208084888C9094989CA0A4A8ACB0B4B8BCDB
S1131130C0C4C8CCD0D4D8DCE0E4E8ECF0F4F8FCCB
S11311401B1F13170B0F03073B3F33372B2F23278B
S11311505B5F53574B4F43477B7F73776B6F63677B
S11311609B9F93978B8F8387BBBFB3B7ABAFA3A76B
S1131170DBDFD3D7CBCFC3C7FBFFF3F7EBEFE3E75B
S113118036323E3A26222E2A16121E1A06020E0A5B
S113119076727E7A66626E6A56525E5A46424E4A4B
S11311A0B6B2BEBAA6A2AEAA96929E9A86828E8A3B
S11311B0F6F2FEFAE6E2EEEAD6D2DEDAC6C2CECA2B
S11311C02D2925213D3935310D0905011D1915112B
S11311D06D6965617D7975714D4945415D5955511B
S11311E0ADA9A5A1BDB9B5B18D8985819D9995910B
S11311F0EDE9E5E1FDF9F5F1CDC9C5C1DDD9D5D1FB
S11312004EE003C04CE001C04AE02F923F924F925F
S11312105F926F927F928F929F92AF92BF92CF9282
S1131220DF92EF92FF920F931F93CF93DF938F93ED
S11312309F93DB01FC01842FE89481909190A1900D
S1131240B190C190D190E190F190019111912191CF
S1131250319141915191619171919BE1F7E10D902F
S113126080240D9090240D90A0240D90B0240D9016
S1131270C0240D90D0240D90E0240D90F0240D9006
S113128000250D9010250D9020250D9030250D90F2
S113129040250D9050250D9060250D9070252EF55C
S11312A0FF91EF9181929192A192B192C192D192C8
S11312B0E192F192019311932193319341935193CC
S11312C061937193DF91CF911F910F91FF90EF90F4
S11312D0DF90CF90BF90AF909F908F907F906F9052
S11312E05F904F903F902F9008958A9509F46894E9
S11312F0E82D8490EC2DC490E02F0491E42F4491C8
S1131300E92D2490ED2D9490E12FD490E52F1491A4
S1131310522DEA2D2490EE2D3490E22FA490E62F46
S1131320E490222D632DEB2D2490E72FB490E32F2E
S11313307491EF2D3491F22C0EF491CF0A2C0B24DE
S1131340402C282C89240824880C08F4892680241D
S11313508224392C3A24330C08F43926302493247B
S1131360440C08F449264024A4242B24220C08F419
S113137029262024B2240E2C0F24402C2C2CCD24DE
S11313800C24CC0C08F4C926C024C2243D2C3E24D1
S1131390330C08F439263024D324440C08F44926A9
S11313A04024E4242F24220C08F429262024F224A7
S11313B0022E0326402C202E01270026000F08F4BD
S11313C0092700250225312E3226330C08F439264C
S11313D030241325440C08F44926402424252326CC
S11313E0220C08F4292620243225062E0726402C18
S11313F0242E45270426440F08F449274025422576
S1131400352E3626330C08F4392630245325440C63
S113141008F44926402464252726220C08F42926AA
S1131420202472251CCF00000000000000000000F2
S113143000000000000000000000000000000000A8
S11314400000000000000000000000000000000098
S11314500000000000000000000000000000000088
S11314600000000000000000000000000000000078
S11314700000000000000000000000000000000068
S11314800000000000000000000000000000000058
S11314900000000000000000000000000000000048
S11314A00000000000000000000000000000000038
S11314B00000000000000000000000000000000028
S11314C00000000000000000000000000000000018
S11314D00000000000000000000000000000000008
S11314E000000000000000000000000000000000F8
S11314F000000000000000000000000000000000E8
S113150052096AD53036A538BF40A39E81F3D7FB74
S11315107CE339829B2FFF87348E4344C4DEE9CBBE
S1131520547B9432A6C2233DEE4C950B42FAC34E33
S1131530082EA16628D924B2765BA2496D8BD125E9
S113154072F8F66486689816D4A45CCC5D65B6928D
S11315506C704850FDEDB9DA5E154657A78D9D8431
S113156090D8AB008CBCD30AF7E45805B8B3450651
S1131570D02C1E8FCA3F0F02C1AFBD0301138A6B6B
S11315803A9111414F67DCEA97F2CFCEF0B4E6739B
S113159096AC7422E7AD3585E2F937E81C75DF6E49
S11315A047F11A711D29C5896FB7620EAA18BE1BAF
S11315B0FC563E4BC6D279209ADBC0FE78CD5AF455
S11315C01FDDA8338807C731B11210592780EC5F9B
S11315D060517FA919B54A0D2DE57A9F93C99CEFF7
S11315E0A0E03B4DAE2AF5B0C8EBBB3C83539961F8
S11315F0172B047EBA77D626E169146355210C7D36
S1131600AB0171E060E007C0AB0170E060EC03C0C7
S1131610AB01772760E8EF92FF920F931F93CF936C
S1131620DF93FA01EA01DC01769567956695669584
S1131630262F0D9001922A95E1F76695669563FB36
S1131640362F762F795F770F770FDF011497262FC8
S1131650E0E0F7E17F0111E04D915D918D919D9165
S11316603217B1F05EF5022F0770043039F5F70137
S1131670E40FF11D4491F701E50FF11D5491F701B9
S1131680E80FF11D8491F701E90FF11D949116C043
S1131690360FF701E40FF11D0491F701E50FF11D79
S11316A04491F701E80FF11D5491F701E90FF11D81
S11316B08491902F4127110F08F41BE1FD0109903B
S11316C004260192099005260192099008260192A8
S11316D00990092601922395271709F0BDCFE894B4
S11316E0DF91CF911F910F91FF90EF90089500002B
S11316F000000000000000000000000000000000E6
S1131700637C777BF26B6FC53001672BFED7AB76BA
S1131710CA82C97DFA5947F0ADD4A2AF9CA472C065
S1131720B7FD9326363FF7CC34A5E5F171D83115D2
S113173004C723C31896059A071280E2EB27B275F3
S113174009832C1A1B6E5AA0523BD6B329E32F846B
S113175053D100ED20FCB15B6ACBBE394A4C58CF63
S1131760D0EFAAFB434D338545F9027F503C9FA837
S113177051A3408F929D38F5BCB6DA2110FFF3D205
S1131780CD0C13EC5F974417C4A77E3D645D1973B9
S113179060814FDC222A908846EEB814DE5E0BDBB3
S11317A0E0323A0A4906245CC2D3AC629195E479EA
S11317B0E7C8376D8DD54EA96C56F4EA657AAE0844
S11317C0BA78252E1CA6B4C6E8DD741F4BBD8B8ADF
S11317D0703EB5664803F60E613557B986C11D9E45
S11317E0E1F8981169D98E949B1E87E9CE5528DFBC
S11317F08CA1890DBFE6426841992D0FB054BB16E8
S1131800E4E2F1E084E292E02FEF2083B096E8175F
S1131810F907D9F7E4E2F2E02CE432E08FEF9FEF2E
S11318209183808393838283958384839783868340
S1131830918780873A96E217F30791F70895CF923C
S1131840DF92EF92FF920F93CF93DF93A4E2B1E084
S1131850E0E0F0E006C031969096E830F10509F436
S11318606BC05E2FEF017C917F3FA9F7A4E2B2E049
S1131870E0E0F0E006C031961A96E430F10509F490
S11318805DC06F01ED90FC9011977FEFE716F706AE
S113189019F0E816F90679F7F601EE0FFF1FEE0FBF
S11318A0FF1FEE0FFF1FD601AA0FBB1FEA0FFB1F7E
S11318B0DF01AC5DBD4F8D939C93EA5DFD4F81E0EC
S11318C090E004C0019685309105D1F1A191B191C8
S11318D01196C1F7F601EE0FFF1FEE0FFF1FEC0D7F
S11318E0FD1DE80FF91FEE0FFF1FEC5DFD4F852F67
S11318F090E091838083083108F007E1CE01880FDE
S1131900991F82959295907F9827807F9827EC0164
S1131910CC5DDE4F688349831A821B821C821D8240
S1131920402F50E0B901865D9E4F0E945B260D8FCB
S113193081E08E8F1F8E05C080E003C080E001C06F
S113194080E0DF91CF910F91FF90EF90DF90CF90E7
S113195008952F923F924F925F926F927F928F924F
S11319609F92AF92BF92CF92DF92EF92FF920F932A
S11319701F93CF93DF931F92CDB7DEB70F2EF4E200
S1131980CF2EF1E0DF2EF02D0F2EF1E46F2EF1E0DB
S11319907F2EF02D0F2EF3E44F2EF1E05F2EF02D6D
S11319A0812C912C0FED11E028EB33E0222ED9018C
S11319B0B983D6018C918F3F09F46CC09F928F92AA
S11319C0A3E2B2E0BF93AF93A8EBB3E0BF93AF93AE
S11319D00E946B2688EB93E00E94581DD2018C91E3
S11319E01F928F93F201319780811F928F93F6019A
S11319F085818F9384818F9383818F9382818F9349
S1131A0080811F928F93A5EEB1E0BF93AF93A8EBB3
S1131A10B3E0BF93AF930E946B2688EB93E00E94E0
S1131A20581D73010FB6F894DEBF0FBECDBFD301AE
S1131A308C91882359F1312CC401880F991F829508
S1131A409295907F9827807F9827FC01EC5DFE4F4C
S1131A505F01F501E30DF11D86811F928F931F93A2
S1131A600F93A8EBB3E0BF93AF930E946B26822D34
S1131A7099810E94581D33940F900F900F900F90EE
S1131A800F900F90D7018C91381618F38CED91E0DC
S1131A900E94661DBFEF8B1A9B0AE0E2CE0ED11C9A
S1131AA0F0E26F0E711C20E2420E511C38E08316E6
S1131AB0910409F07ECF04E212E0C12CD12C21E084
S1131AC00F2EF9EC8F2EF1E09F2EF02D0F2EFDEA54
S1131AD06F2EF1E07F2EF02D212C0F2EF6EAAF2E83
S1131AE0F1E0BF2EF02D88EB93E0382EDC014B2E75
S1131AF0F80180819181019609F454C0DF92CF925C
S1131B009F928F92A8EBB3E0BF93AF930E946B2692
S1131B1088EB93E00E94581DD80111968C9111977F
S1131B208F938C918F937F926F92A8EBB3E0BF93C6
S1131B30AF930E946B2688EB93E00E94581D0FB66A
S1131B40F894DEBF0FBECDBFC80102967C01522CB3
S1131B50D7018D919D917D018F3FBFEF9B0729F4A4
S1131B608AEA91E00E94661D14C09F938F93BF92EE
S1131B70AF92A8EBB3E0BF93AF930E946B26832D83
S1131B80942D0E94581D0F900F900F900F900F905E
S1131B900F905394F4E05F12DBCF83EA91E00E944C
S1131BA0661D222D3FEFC31AD30A065F1F4F84E040
S1131BB0C816D10409F09CCF222321F08FE891E0CC
S1131BC00E94661D8CE891E00E94661D0F90DF91D3
S1131BD0CF911F910F91FF90EF90DF90CF90BF9026
S1131BE0AF909F908F907F906F905F904F903F90B9
S1131BF02F9008952F923F924F925F926F927F920F
S1131C008F929F92AF92BF92CF92DF92EF92FF9208
S1131C100F931F93CF93DF9300D000D0CDB7DEB7DF
S1131C202B013C0104E212E00F2EFCE4CF2EF2E083
S1131C30DF2EF02D212C312C0F2EF3E58F2EF2E028
S1131C409F2EF02D1C830B83AB80BC80F50180811B
S1131C509181019609F493C0F501E280F380FF2499
S1131C60F701EE0FFF1FE295F295F07FFE27E07F6C
S1131C70FE27EC5DFE4F868D882379F08150F701B5
S1131C80EE0FFF1FE295F295F07FFE27E07FFE271F
S1131C90EC5DFE4F868F811172C02114310409F06E
S1131CA06EC09701220F331F22953295307F322761
S1131CB0207F32273A8329832C5D3E4F1901F4019A
S1131CC021E411922A95E9F7840120E030E0A9018A
S1131CD06CE070E080E290E00E948523A301920111
S1131CE068E170E08CE290E00E948523F10120819C
S1131CF030E040E050E064E070E084E490E00E9472
S1131D008523F101458D50E069817A81665D7E4FBE
S1131D108CE592E00E945B26F10142825382648248
S1131D207582878D8F5F878F8630D8F0F1012FEF12
S1131D302083F50184819581938382832681378171
S1131D403583248320853185378326832FEF3FEF26
S1131D5031872087019699F48FEF9FEF91838083D9
S1131D600EC0F701EE0FFF1FE295F295F07FFE27FC
S1131D70E07FFE27EC5DFE4F880F8D5F868FEB8141
S1131D80FC813A96FC83EB83EC15FD0509F05CCFEE
S1131D90C1010F900F900F900F90DF91CF911F9181
S1131DA00F91FF90EF90DF90CF90BF90AF909F90F6
S1131DB08F907F906F905F904F903F902F900895F9
S1131DC00F931F93CF93DF93672B41F46091240209
S1131DD0709125026817790731F424C08DE591E0EC
S1131DE00E94661D20C160912E0270912F02681717
S1131DF0790791F060913802709139026817790778
S1131E0071F060914202709143026817790709F0FA
S1131E1006C103E010E008C001E010E005C002E0E4
S1131E2010E002C000E010E0802F912F880F991F6E
S1131E30FC01EE0FFF1FEE0FFF1F8E0F9F1FFC0113
S1131E40EC5DFD4FC281D381DD27FE01EE0FFF1F44
S1131E50E295F295F07FFE27E07FFE27EC5DFE4FD2
S1131E6082819381A481B58182179307A407B50762
S1131E7009F0D0C0DF93CF938DE291E09F938F93CD
S1131E8088EB93E09F938F930E946B2688EB93E0FB
S1131E900E94581DCC0FDD1FC295D295D07FDC2740
S1131EA0C07FDC27CC5DDE4F8FEF8883802F912F9E
S1131EB0880F991FFC01EE0FFF1FEE0FFF1F8E0FFF
S1131EC09F1FFC01EC5DFD4F24813581802F912FF4
S1131ED0880F991FFC01EE0FFF1FEE0FFF1F8E0FDF
S1131EE09F1FFC01EC5DFD4F33832283802F912FD4
S1131EF0880F991FFC01EE0FFF1FEE0FFF1F8E0FBF
S1131F009F1FFC01EC5DFD4F26813781802F912FAF
S1131F10880F991FFC01EE0FFF1FEE0FFF1F8E0F9E
S1131F209F1FFC01EC5DFD4F35832483802F912F8F
S1131F30880F991FFC01EE0FFF1FEE0FFF1F8E0F7E
S1131F409F1FFC01EC5DFD4F20853185802F912F73
S1131F50880F991FFC01EE0FFF1FEE0FFF1F8E0F5E
S1131F609F1FFC01EC5DFD4F37832683802F912F4B
S1131F70880F991FFC01EE0FFF1FEE0FFF1F8E0F3E
S1131F809F1FFC01EC5DFD4F8FEF9FEF91878087D2
S1131F90802F912F880F991FFC01EE0FFF1FEE0F6A
S1131FA0FF1F8E0F9F1FFC01EC5DFD4F0F900F90E4
S1131FB00F900F900F900F9082819381019641F5BD
S1131FC01F930F938CE091E09F938F9388EB93E0A2
S1131FD09F938F930E946B2688EB93E00E94581D79
S1131FE0802F912F880F991FFC01EE0FFF1FEE0F1A
S1131FF0FF1F8E0F9F1FFC01EC5DFD4F8FEF9FEFC6
S1132000918380830F900F900F900F900F900F90FB
S1132010A0DC09C08DEB90E00E94661D04C088E638
S113202090E00E94661DDF91CF911F910F9108955A
S113203028989EBD0DB407FEFDCF8EBD0DB407FEDE
S1132040FDCF289A089528989EBD0DB407FEFDCFB4
S11320502EB530E0322F22278EBD0DB407FEFDCF02
S11320608EB5289AA901482BCA01089528981EBC48
S11320700DB407FEFDCF289A8EB5089528988EBD1D
S11320800DB407FEFDCF6EBD0DB407FEFDCF289A3B
S11320900895289880EB8EBD0DB407FEFDCF1EBCBD
S11320A00DB407FEFDCF289A8EB50895239A259A7C
S11320B0229A249881E58CBD08951F920F920FB641
S11320C00F9211242F933F934F935F936F937F93BA
S11320D08F939F93AF93BF93EF93FF93E898C6DFDB
S11320E088230CF07EC0809194028130D9F020F0D6
S11320F0823009F455C06DC081E080939702C9DF36
S11321008093160193E0980F90939602E0919802C1
S1132110F0919902908191115CC091E090939402A6
S113212081835FC090919702809196029817F8F48A
S1132130B0DF209116012827209316019091970271
S1132140953338F4E0919802F0919902E90FF11D6A
S1132150818380919702823011F42F3FD1F58F5FF4
S11321608093970290919602891708F43AC0E091FF
S11321709802F091990282E0808380919C0290E021
S113218001968170907880939C0226E3829FC0011F
S1132190112482569D4F909399028093980219C0FE
S11321A0E091970280919602E81758F481E08E0F2F
S11321B080939702F0E0E65FFC4F608188EB5EDF7E
S11321C010C01092950281E892E832DF6AEA88EB47
S11321D055DF1092940261E88AEC50DF63E88AECE0
S11321E04DDFE89AFF91EF91BF91AF919F918F914D
S11321F07F916F915F914F913F912F910F900FBEFF
S11322000F901F90189580919402811131C0E89825
S113221080E090E018DFE89A90FF04C088EC809397
S11322200001089580910001815019F0809300010C
S1132230089581E080930001809195028130C1F47A
S1132240E89881E092E8F4DE80910C038A5F809341
S113225096021092970282E0809394028AEA98EBA5
S1132260E7DE8AEA98EBE4DE81E292E8E1DEE89ACE
S113227008959091950291110DC060930C03809381
S11322800D038627809580930E0381E08093950249
S113229080E8089583E00895CF93DF93C82FD62F65
S11322A0BA01833370F48091950281110CC04C2FD4
S11322B050E08FE093E00E945B266C2F8D2FD9DFD6
S11322C003C082E001C083E0DF91CF910895E091E3
S11322D09A02F0919B02108280919D0290E00196F7
S11322E08170907880939D0226E3829FC00111241F
S11322F082569D4F90939B0280939A020895289A48
S1132300209AD4DE87EE90E893DE81E092E890DEB6
S113231080E496EA8DDE83E296EC8ADE8CE294E930
S113232087DE8BEA92EC84DE81E89AEC81DE87EF2B
S113233094EC7EDE80E798E97BDE80E098EC78DE42
S113234080E090EE75DE8DE280930A0384ED809345
S11323500B038EE992E090939B0280939A029093F0
S113236099028093980281E892E862DEE9E6F0E05F
S113237080818260808380E090E065DEE09A81E87D
S11323809AEC56DE83E89AEC53DEE89A0895AF920D
S1132390BF92CF92DF92EF92FF920F931F9380919F
S11323A052028130F1F0B8F1823009F04EC00F2EA4
S11323B0F3E5AF2EF2E0BF2EF02D6894CC24C5F8DF
S11323C0D12CEE24EA941FE0F12E00E010E020E08E
S11323D030E0A9016CE070E088E490E00E94B6224D
S11323E037C00F2EF3E5AF2EF2E0BF2EF02D689428
S11323F0CC24C5F8D12CEE24EA941FE0F12E00E0A1
S113240010E020E030E0A9016CE070E088E490E0A6
S11324100E94B6221DC00F2EF3E5AF2EF2E0BF2EB0
S1132420F02D6894CC24C5F8D12CEE24EA941FE056
S1132430F12E00E010E020E030E0A9016CE070E053
S113244088E490E00E94B62203C060E070E0CB0113
S11324501F910F91FF90EF90DF90CF90BF90AF90BE
S113246008950F931F9320915202223001F128F412
S1132470222399F1213031F13AC0283069F02A3011
S1132480B1F503E512E09B01AC0167E070E08DE675
S113249090E00E9485232BC003E512E09B01AC0170
S11324A067E070E088E490E00E94852320C003E5A3
S11324B012E09B01AC0167E070E084E590E00E94CB
S11324C0852315C003E512E09B01AC0167E070E0D1
S11324D084E590E00E9485230AC003E512E09B0195
S11324E0AC0167E070E084E590E00E9485231F91D1
S11324F00F9108950F931F9320915202223001F1FE
S113250028F4222399F1213031F13AC0283069F0BE
S11325102A30B1F503E512E09B01AC0164E070E000
S113252084E790E00E9485232BC003E512E09B0121
S1132530AC0164E070E08FE490E00E94852320C049
S113254003E512E09B01AC0164E070E08BE590E0F0
S11325500E94852315C003E512E09B01AC0164E0F1
S113256070E08BE590E00E9485230AC003E512E049
S11325709B01AC0164E070E08BE590E00E94852350
S11325801F910F910895AF92BF92CF92DF92EF9275
S1132590FF920F931F930F2EF3E5AF2EF2E0BF2EA1
S11325A0F02D6894CC24C5F8D12C1FE0E12EF12C39
S11325B000E010E020E030E0A90164E070E084E491
S11325C090E00E94B622609352026230C9F028F46F
S11325D06623F1F06130C1F01EC0693049F06A3001
S11325E019F06830C1F408C088E78093510213C021
S11325F08DE6809351020FC083E5809351020BC096
S11326008FE58093510207C08FE58093510203C088
S11326108FE5809351021F910F91FF90EF90DF900F
S1132620CF90BF90AF9008952F923F924F925F92B8
S11326306F927F928F929F92AF92BF92CF92DF92CE
S1132640EF92FF920F931F93CF93DF93CDB7DEB733
S11326502E970FB6F894DEBF0FBECDBF982E93DF32
S11326600F2EF3E5AF2EF2E0BF2EF02D6894CC24AC
S1132670C5F8D12CEE24EA941FE0F12E00E010E01E
S113268020E030E0A9016CE070E080E290E00E947C
S1132690B6226D837E83EE24EA94FE2C0FEF10E0C5
S11326A020E030E0A90168E170E08CE290E00E9453
S11326B0B622862E772E682E592E1FE0E12EF12C9D
S11326C000E010E020E030E0A90164E070E084E480
S11326D090E00E94B622362E2E812F933D813F93A7
S11326E089EB95E09F938F9308EB13E01F930F936F
S11326F00E946B26C8010E94581D5F926F927F92C0
S11327008F9286EA95E09F938F931F930F930E9475
S11327106B26C8010E94581D1F923F9286E995E0DE
S11327209F938F931F930F930E946B26C8010E945F
S1132730581D0FB6F894DEBF0FBECDBF92E09315BF
S1132740A8F025DE7F936F9387E895E09F938F939E
S1132750C8019F930F930E946B26C8010E94581DC5
S11327600F900F900F900F900F900F90A7EFA30D65
S1132770AD87A23008F0FBC0809152028930E1F0AD
S11327808A30A1F50F2EF3E5AF2EF2E0BF2EF02D27
S11327906894CC24C5F8D12CEE24EA941FE0F12EE1
S11327A000E010E020E030E0A9016CE070E088E493
S11327B090E00E94B6221DC00F2EF3E5AF2EF2E08A
S11327C0BF2EF02D6894CC24C5F8D12CEE24EA94C5
S11327D01FE0F12E00E010E020E030E0A9016CE001
S11327E070E088E490E00E94B62203C060E070E0EC
S11327F0CB0178876F83809152028930F9F08A3057
S1132800D1F50F2EF3E5AF2EF2E0BF2EF02D689434
S1132810CC24C5F8D12CEE24EA94FE2C0FEF10E062
S113282020E030E0A90168E170E084E590E00E94D6
S1132830B62269877A878B879C8721C00F2EF3E5A0
S1132840AF2EF2E0BF2EF02D6894CC24C5F8D12C25
S1132850EE24EA94FE2C0FEF10E020E030E0A90112
S113286068E170E084E590E00E94B62269877A8787
S11328708B879C8704C019861A861B861C868091C8
S113288052028930F9F08A30D1F50F2EF3E5AF2EDC
S1132890F2E0BF2EF02D6894CC24C3F8D12CE12CA7
S11328A0F12C8701E39420E030E0A90161E070E0BD
S11328B08CE690E00E94B62288248394613001F172
S11328C0812C1EC00F2EF3E5AF2EF2E0BF2EF02DAB
S11328D06894CC24C3F8D12CE12CF12C8701E39427
S11328E020E030E0A90161E070E08CE690E00E9415
S11328F0B62288248394613019F0812C01C0812C84
S1132900B885BF93EF81EF9387E795E09F938F930B
S113291008EB13E01F930F930E946B26C8010E94DB
S1132920581DFC85FF932B852F933A853F9389850A
S11329308F9381E695E09F938F931F930F930E944B
S11329406B26C8010E94581D1F928F9287E595E05F
S11329509F938F931F930F930E946B26C8010E942D
S1132960581D0FB6F894DEBF0FBECDBF08C0198640
S11329701A861B861C86E8EEFDEFF887EF83F9E0E4
S11329803F1609F4F1C380915202823009F443C026
S113299038F4882309F475C0813009F457C08CC019
S11329A08830F1F08A3009F087C00F2EF3E5AF2E9E
S11329B0F2E0BF2EF02D6894CC24C5F8D12C1FE78B
S11329C0E12EF12C00E010E020E030E0A90167E006
S11329D070E08DE690E00E94B6222B013C016FC0AE
S11329E00F2EF3E5AF2EF2E0BF2EF02D6894CC2429
S11329F0C5F8D12C1FE7E12EF12C00E010E020E017
S1132A0030E0A90167E070E088E490E00E94B6221B
S1132A102B013C0154C00F2EF3E5AF2EF2E0BF2E84
S1132A20F02D6894CC24C5F8D12C1FE7E12EF12CAD
S1132A3000E010E020E030E0A90167E070E084E508
S1132A4090E00E94B6222B013C0139C00F2EF3E521
S1132A50AF2EF2E0BF2EF02D6894CC24C5F8D12C13
S1132A601FE7E12EF12C00E010E020E030E0A901A6
S1132A7067E070E084E590E00E94B6222B013C01FF
S1132A801EC00F2EF3E5AF2EF2E0BF2EF02D68949A
S1132A90CC24C5F8D12C1FE7E12EF12C00E010E086
S1132AA020E030E0A90167E070E084E590E00E9456
S1132AB0B6222B013C0103C0412C512C32018091E0
S1132AC05202823009F447C038F4882309F47DC0E7
S1132AD0813009F45DC096C0883001F18A3009F074
S1132AE091C00F2EF3E5AF2EF2E0BF2EF02D6894C7
S1132AF0CC24C5F8D12C1FE0E12EF12C00E010E02D
S1132B0020E030E0A90164E070E084E790E00E94F6
S1132B10B62269837A838B839C8378C00F2EF3E576
S1132B20AF2EF2E0BF2EF02D6894CC24C5F8D12C42
S1132B301FE0E12EF12C00E010E020E030E0A901DC
S1132B4064E070E08FE490E00E94B62269837A83A7
S1132B508B839C835BC00F2EF3E5AF2EF2E0BF2E78
S1132B60F02D6894CC24C5F8D12C1FE0E12EF12C73
S1132B7000E010E020E030E0A90164E070E08BE5C3
S1132B8090E00E94B62269837A838B839C833EC043
S1132B900F2EF3E5AF2EF2E0BF2EF02D6894CC2477
S1132BA0C5F8D12C1FE0E12EF12C00E010E020E06C
S1132BB030E0A90164E070E08BE590E00E94B62269
S1132BC069837A838B839C8321C00F2EF3E5AF2E18
S1132BD0F2E0BF2EF02D6894CC24C5F8D12C1FE070
S1132BE0E12EF12C00E010E020E030E0A90164E0E7
S1132BF070E08BE590E00E94B62269837A838B8330
S1132C009C8304C019821A821B821C827F926F9259
S1132C105F924F9284E495E09F938F9308EB13E0C7
S1132C201F930F930E946B26C80142D72C812F93C8
S1132C303B813F938A818F9399819F9386E395E0AB
S1132C409F938F931F930F930E946B26C80130D7D5
S1132C500FB6F894DEBF0FBECDBF332009F484C293
S1132C602091510287E090E0821B9109B8E09B9E7D
S1132C70800D911D11241C013694279436942794B9
S1132C803694279489E295E021D72114310409F47C
S1132C9044C010E00F2EF8EB8F2EF3E09F2EF02DA2
S1132CA0ED85EE871D878091510290E00F2EF3E5AC
S1132CB0AF2EF2E0BF2EF02D6894CC24C3F8D12CB3
S1132CC0E12CF12C8701EA9420E030E0A90168E0CE
S1132CD070E0AD85F8E0AF9F800D911D11240E9436
S1132CE0B6221F926F93A4E2B5E0BF93AF939F9275
S1132CF08F920E946B26C401DBD6FD85FF5FFD87A2
S1132D008F2F90E00F900F900F900F900F900F90D7
S1132D108215930540F22E852D8782E295E0D6D662
S1132D203AE0431651046104710409F4CCC084E10F
S1132D30481651046104710409F4B1C145284628B8
S1132D40472809F011C289819A81AB81BC81813005
S1132D509105A105B10531F00597A105B10509F467
S1132D6082C002C2809151020F2EF3E5AF2EF2E031
S1132D70BF2EF02D6894CC24C5F8D12CE12CF12C75
S1132D808701EA9420E030E0A90168E070E090E077
S1132D900E94B6229F938F937F936F9388E195E06F
S1132DA09F938F930F2EF8EB8F2EF3E09F2EF02D31
S1132DB09F928F920E946B26C4017AD68091510211
S1132DC090E020E030E0A90168E070E008960E94FD
S1132DD0B6229F938F937F936F938EE095E09F939A
S1132DE08F939F928F920E946B26C40161D680912B
S1132DF0510290E020E030E0A90168E070E04096E4
S1132E000E94B6229F938F937F936F9384E095E003
S1132E109F938F939F928F920E946B26C40148D6F2
S1132E208091510290E0EE24EA94FE2C870120E088
S1132E3030E0A90160E270E048960E94B6229F93B8
S1132E408F937F936F9388EF94E09F938F939F92D8
S1132E508F920E946B260FB6F894DEBF0FBECDBFD3
S1132E60C40126D681C1809151020F2EF3E5AF2E05
S1132E70F2E0BF2EF02D6894CC24C5F8D12C14E6D2
S1132E80E12EF12C00E010E020E030E0A90167E041
S1132E9070E090E00E94B6229F938F937F936F938C
S1132EA089EE94E09F938F9388EB93E09F938F93A5
S1132EB00E946B2688EB93E0FBD50FB6F894DEBF37
S1132EC00FBECDBF51C189819A81AB81BC81823053
S1132ED09105A105B10559F183309105A105B1050D
S1132EE009F495C00197A105B10509F03DC18CED28
S1132EF094E0ECD5809151020F2EF3E5CF2EF2E051
S1132F00DF2EF02DEE24EA941FE7F12E00E010E00E
S1132F1020E030E84FEF5FEF60E170E090E00E9466
S1132F202323CB01E3D58AED94E0D0D51DC1809154
S1132F3051020F2EF3E5AF2EF2E0BF2EF02D689470
S1132F40CC24C5F8D12C18EEE12E13E0F12E00E0CC
S1132F5010E020E030E0A9016AE070E090E00E9417
S1132F60B6222B013C019B01ADECBCEC0E944C262B
S1132F709695879596958795969587959C01220FAA
S1132F80331F880F991F880F991F880F991F820F6D
S1132F90931FD201A81BB90BCD019F93AF9392014C
S1132FA0ADECBCEC0E944C2696958795969587953A
S1132FB0969587959F938F938EEB94E09F938F9331
S1132FC088EB93E09F938F930E946B2688EB93E0AA
S1132FD06FD58091510290E06501EE24EA941FE7D9
S1132FE0F12E00E010E020E030E84FEF5FEF60E109
S1132FF070E00A960E942323CB0178D58CEB94E0F1
S113300065D50FB6F894DEBF0FBECDBFADC08091BD
S113301051020F2EF3E5AF2EF2E0BF2EF02D68948F
S1133020CC24C5F8D12CEE24EA94FE2C01E010E067
S113303020E030E0A90161E170E090E00E94B62256
S11330409F938F937F936F9382EA94E09F938F93E0
S113305088EB93E09F938F930E946B2688EB93E019
S113306027D58091510290E06501EE24EA941FE790
S1133070F12E00E010E020E030E84FEF5FEF60E178
S113308070E041960E942323CB0130D580EA94E07E
S11330901DD50FB6F894DEBF0FBECDBF65C08981C4
S11330A09A81AB81BC810197A105B10509F05CC08F
S11330B0809151020F2EF3E5AF2EF2E0BF2EF02DDA
S11330C06894CC24C3F8D12CE12CF12C8701E3942F
S11330D020E030E0A90161E070E090E00E94B622B7
S11330E081E090E0613009F080E09F938F9389E95B
S11330F094E09F938F930F2EF8EB8F2EF3E09F2E87
S1133100F02D9F928F920E946B26C401D1D480919E
S1133110510290E00F2EF3E5AF2EF2E0BF2EF02D1A
S11331206894CC24C5F8D12CEE24EA94FE2C00E05B
S113313010E020E030E0A90160E170E001960E9417
S1133140B6229F938F937F936F938AE894E09F9323
S11331508F939F928F920E946B26C401A9D40FB6BD
S1133160F894DEBF0FBECDBF87E894E0AFD4BD8531
S1133170B23090F48091420390914303EF81F8853B
S1133180E817F90749F429853A854B855C85BF0121
S11331908D819E810E94E00E2E960FB6F894DEBFBC
S11331A00FBECDBFDF91CF911F910F91FF90EF9094
S11331B0DF90CF90BF90AF909F908F907F906F9053
S11331C05F904F903F902F9008950F931F93CF934C
S11331D0DF93D82FC62F209142033091430340E060
S11331E050E003E512E06CE070E080E290E00E94C1
S11331F085230E94FC2320914D0230914E02409180
S11332004F025091500268E170E08CE290E00E941D
S113321085236CEF6C0F87E592E0DAD69B01AC0155
S113322060E270E080E090E00E9485238091410399
S1133230D81710F0DFEFD80F6D2F70E0762F6627C8
S1133240685F7D4F769567957695679576956795D2
S113325040E250E089EF93E00E944D288C2FE4D99E
S1133260C0934C02F4D7DF91CF911F910F91089531
S1133270CF93DF9300D000D0CDB7DEB72FEF88E037
S11332809DE3215080409040E1F700C0000007D743
S113329080E00E94FB220E94000CA12CB12C6894B7
S11332A0CC24C5F8D12CEE24EA94FE2C0FEF10E0C8
S11332B020E030E0A90168E170E080E590E00E9440
S11332C0B6229B01AC012C593F4F4F4F5F4F2093C7
S11332D04D0230934E0240934F025093500200E04F
S11332E010E068E170E080E590E00E948523689436
S11332F0CC24C3F8D12C10E1E12EF12C00E010E035
S113330021E030E040E050E068E070E080E092E0EE
S11333100E94B622609341036894CC24C4F8D12C53
S1133320EE24EA941FE0F12E00E010E020E030E00B
S1133330A9016CE070E080E490E00E94B6227093F2
S113334043036093420395D384E894E0BFD31F9270
S11333501F921F921F921F921F921F921F921F92E1
S11333601F9286E594E09F938F9308EB13E01F93DD
S11333700F930E946B26C8019BD384E294E0A6D3EA
S1133380809143038F93809142038F9384E194E06F
S11333909F938F931F930F930E946B26C80188D32A
S11333A0809150028F9380914F028F9380914E02AF
S11333B08F9380914D028F938EEF93E09F938F9321
S11333C01F930F930E946B26C80172D3809141030F
S11333D01F928F938AEE93E09F938F931F930F9383
S11333E00E946B260FB6F894DEBF0FBECDBFC80196
S11333F05FD389EB93E06AD343E064EF71E084EF39
S113340091E04FD60E947F1178941A82612C0F2E7E
S1133410FAE92F2EF2E03F2EF02D512CD101ED913F
S1133420FC918081823009F083C00181002341F046
S1133430802F8F7029F48091410381111BC0CDC26C
S11334401F920F93A8E8B3E0BF93AF93A8EBB3E048
S1133450BF93AF930E946B2688EB93E029D3602F30
S113346083E592E06FD30F900F900F900F900F9021
S11334700F905CC0152D802E912C0F2EFCEFBF2ECB
S1133480F02DB00ED1016D917C916C5F7F4FA40142
S113349083E592E00E945B26612F70E0762F662719
S11334A0685F7D4F76956795769567957695679570
S11334B040E250E089EF93E00E944D28602F83E5BD
S11334C092E00E94C325852D71D56B017C016B2D83
S11334D087E592E07DD5C616D706E806F906E1F43D
S11334E01F921F93A0E7B3E0BF93AF93A8EBB3E0A1
S11334F0BF93AF930E946B2688EB93E0D9D2602FE1
S113350083E592E01FD3802F8FD80F900F900F90F8
S11335100F900F900F9007C01F5F80914103181701
S113352008F4B0CF5AC28DE393E0D0D20E94671161
S113353080911701882309F402C261E080E893E0D6
S113354022D58983E3E5F2E0DF0121E41D922A9587
S1133550E9F763E080E893E016D5782E282F30E071
S113356040E050E003E512E064E070E084E490E0C1
S11335700E94852308D888E0781609F45AC0871574
S113358020F092E0971550F40DC1A9E07A1609F4E1
S11335906AC0BAE07B1609F4EAC004C165E080E8B9
S11335A093E0F1D4E82E67E080E893E0ECD4F12CCA
S11335B0FE2CEE24E80EF11C970140E050E08091CF
S11335C05202813061F0A0F08230D1F403E512E0C0
S11335D06CE070E088E490E00E94852311C003E56C
S11335E012E06CE070E088E490E00E94852308C05B
S11335F003E512E06CE070E088E490E00E9485232B
S113360069E080E893E0BFD4682F70E080E090E048
S11336100E9431126BE080E893E0B5D4682F70E02B
S113362080E090E00E947A120F2EFCE0AF2EF02D85
S1133630BCC065E080E893E0A6D4682F70E080E029
S113364090E00E94311267E080E893E09CD4682FF8
S113365070E080E090E00E947A12E12CF12C6894F2
S1133660AA24A3F8A9C065E080E893E08CD4182FBD
S113367067E080E893E087D4212F30E0322F2227BF
S1133680280F311D40E050E080915202893059F0FA
S11336908A3089F403E512E06CE070E088E490E09D
S11336A00E94852308C003E512E06CE070E088E422
S11336B090E00E94852369E080E893E064D4C82EFA
S11336C06BE080E893E05FD4D12CE12CF12C7601FF
S11336D0DD24CC2490E0A0E0B0E0BA2FA92F982FED
S11336E08827C80ED91EEA1EFB1E6DE080E893E011
S11336F04AD4A7019601280F311D411D511D809107
S11337005202893051F08A3079F403E512E068E11D
S113371070E084E590E0F9D707C003E512E068E1C2
S113372070E084E590E0F1D76FE080E893E02BD47B
S113373021E0811101C0252D80915202893069F068
S11337408A30A9F430E040E050E003E512E061E0A3
S113375070E08CE690E0D9D70AC030E040E050E059
S113376003E512E061E070E08CE690E0CED761E121
S113377080E893E008D4682F70E080E090E00E9435
S1133780311263E180E893E0FED3682F70E080E0BB
S113379090E00E947A12E12CF12C0F2EF6E1AF2E6C
S11337A0F02D03C0E12CF12CA52C772009F45BC08B
S11337B0E9E07E1609F459C0E0E8F3E00190002046
S11337C0E9F7CF01825893406C01CA18D108D69406
S11337D0C7948C2CCC2009F449C0A39400E010E0D9
S11337E0452CB52C1C830B836A2D80E893E0CBD346
S11337F0982E282F30E040E050E08091510203E5FC
S113380012E068E070E0AB81BC81A80FB11DCD016E
S11338107CD7992019F0442443944B0CB394A3947B
S1133820A394EB81FC813896FC83EB83B814E0F21B
S11338304814E0F41F924F92DD24DF92CF92A1E16D
S1133840B3E0BF93AF93A8EBB3E0BF93AF930E94F1
S11338506B2688EB93E02CD10FB6F894DEBF0FBE35
S1133860CDBF842C03C0852C01C0852C80915102CE
S113387090E00796A8E08A9E800D911D11249695EC
S11338808795969587959695879599270197BC0175
S1133890992314F4615F7F4F7595679575956795C6
S11338A075956795759567956F5F7F4F162F129580
S11338B0107FB2E0B71520F4612F898186DC35C012
S11338C0EFEFEE16EFE0FE0639F480EE92E0FED064
S11338D0612F89817ADC29C00E94C711DC01CB01E8
S11338E007EF010F2CE532E04981672D0E941F0C80
S11338F08823B1F01F921F93A4EBB2E0BF93AF9360
S1133900A8EBB3E0BF93AF930E946B2688EB93E0E0
S1133910CFD00F900F900F900F900F900F9003C087
S11339208CE792E0D3D00E94A90C509217010E9418
S1133930031141E060E070E088EC90E0B2D3F2E380
S11339406F122DC041E06AE070E08AE090E0A9D3F4
S113395080914D0290914E02A0914F02B09150027D
S1133960BC01CD016F5F7F4F8F4F9F4F0E94FA0DB7
S11339708C01009769F087E692E0A8D0D8015D96A3
S11339806C915D97675F11968C911FDC0E94A90C66
S1133990BA81B23371F0BF5FBA83652C0CC0EFE714
S11339A0F8E321E0E150F0402040E1F700C00000DE
S11339B002C05A82652C0E94031163948CD18091B9
S11339C01B01882309F42ACD815080931B018111A6
S11339D025CD87E392E07AD021CD80E493E076D0C0
S11339E0402F50E0D1016D917C916C5F7F4F83E556
S11339F092E00E945B26602F83E592E0A3D093CDF2
S1133A001F920F920FB60F9211242F933F934F934F
S1133A105F936F937F938F939F93AF93BF93EF9332
S1133A20FF9320911C012C3398F43091C6004091EF
S1133A301D01822F90E0840F911D6CE370E00E94C1
S1133A401726FC01EC5BFC4F30832F5F20931C0195
S1133A50FF91EF91BF91AF919F918F917F916F9162
S1133A605F914F913F912F910F900FBE0F901F9038
S1133A701895589AE1ECF0E0808188608083A2EC8C
S1133A80B0E08C918E608C938081806180831092F1
S1133A90C50080E48093C400808180688083089599
S1133AA0E0ECF0E0908195FFFDCF8093C60008958F
S1133AB0CF93DF93EC018881882329F02196F0DFEE
S1133AC089918111FCCFDF91CF910895CF93DF933A
S1133AD0EC01FC018491882331F0E2DF2196FE01A0
S1133AE084918111FACFDF91CF910895CF93DF9321
S1133AF0EC01992334F485E19CE0E8DFD195C1958C
S1133B00D109CE0164E670E00E9417269F938F933B
S1133B107F936F938DE09CE09F938F9388EB93E06A
S1133B209F938F930E946B2688EB93E0C1DF8DB740
S1133B309EB708960FB6F8949EBF0FBE8DBFDF9157
S1133B40CF910895CF92DF92EF92FF920F931F933C
S1133B50CF93DF93C62E662309F1082F192FD12C9A
S1133B600F2EF7E0EF2EFCE0FF2EF02DC8EBD3E094
S1133B70F80181918F011F928F93FF92EF92DF934F
S1133B80CF930E946B26CE0193DFD3940F900F90B6
S1133B900F900F900F900F90DC10EACF84E09CE020
S1133BA095DFDF91CF911F910F91FF90EF90DF9000
S1133BB0CF9008950F931F93CF93DF9381E091E00B
S1133BC077DF80E893E074DF81E09CE07FDF809121
S1133BD08003873709F03BC0E0E8F3E00190002060
S1133BE0E9F7E658F34009F06EC080911A01882382
S1133BF051F161E080E893E0C6D1082FC82FD0E0EE
S1133C0063E080E893E0BFD1182F1F920F931F92B7
S1133C108F9329ED3BE03F932F9328EB33E03F93C1
S1133C202F930E946B2688EB93E042DF612FCE0135
S1133C300E9465288DB79EB708960FB6F8949EBF6C
S1133C400FBE8DBF43C082EA9BE040DF3FC0823796
S1133C5051F5E0E8F3E001900020E9F7E458F3407F
S1133C6091F561E080E893E08ED1C82F90E00E9446
S1133C705D281F928F931F92CF9389E79BE09F93B8
S1133C808F9388EB93E09F938F930E946B2688EB2E
S1133C9093E00EDF8DB79EB708960FB6F8949EBFDB
S1133CA00FBE8DBF13C0833771F4E0E8F3E00190D9
S1133CB00020E9F73197E058F340359720F081E090
S1133CC08093170103C086E69BE000DFDF91CF916C
S1133CD01F910F9108952F923F924F925F926F928E
S1133CE07F928F92AF92BF92CF92DF92EF92FF9228
S1133CF01F93CF93DF9380911701811119C1809194
S1133D001C01882309F414C1CCE3D0E00F2EF0E8A1
S1133D10AF2EF3E0BF2EF02D0F2EF3E76F2EF02D14
S1133D200F2EF6E37F2EF02D882483940F2EF7E7D1
S1133D302F2EF02D0F2EF5E03F2EF02D0F2EF2E753
S1133D404F2EF02D0F2EF3E05F2EF02D0F2EFDE100
S1133D50CF2EFBE0DF2EF02DF89480911D0190E032
S1133D60FC01EC5BFC4F10810196BE0160D780938F
S1133D701D0180911C01815080931C0178948091D5
S1133D801B01811105C0109218011092190150C035
S1133D90E0901901809118018E1508F049C01D307A
S1133DA019F48093190138C090ED910F9A3028F0DE
S1133DB0912F9F7D9154963060F5E82FF0E0E05804
S1133DC0FC4F10838F5F80931801F12CE81AF108DF
S1133DD0812FBFD0212F332727FD3095FF92EF92FB
S1133DE01F928F933F931F933F931F93DF92CF9222
S1133DF0A8EBB3E0BF93AF936ED788EB93E058DEA4
S1133E008DB79EB70C960FB6F8949EBF0FBE8DBFAC
S1133E1003C085EE9AE05ADEE09118018091190101
S1133E20E81377C0F0E0E058FC4F1082C3DE71C0A5
S1133E30183609F037C086ED9AE048DE8BEB9AE03D
S1133E4045DE8CE89AE042DE8CE49AE03FDE82E2D2
S1133E509AE03CDE87EF99E039DE89EA99E036DEC4
S1133E608DE599E033DE8BE099E030DE8FEB98E06E
S1133E702DDE8DE698E02ADE8EE098E027DE8EEED9
S1133E8097E024DE8EEC97E021DE8BEA97E01EDEDD
S1133E9088E897E01BDE88E697E018DE82E497E086
S1133EA015DE37C0183731F480921A0186E197E0A5
S1133EB00DDE2FC01A3731F410921A0189EE96E004
S1133EC005DE27C0123751F48FEA96E0FFDDD501F5
S1133ED04C9250921901809218011BC0173751F46B
S1133EE08DE696E0F3DDF50120823092190180928F
S1133EF018010FC0133751F482E096E0E7DDD501D5
S1133F006C92709219018092180103C083ED95E0C0
S1133F10DDDD882D2091190190911801291301C02C
S1133F2080E0819580931B0180911C01811114CF45
S1133F30DF91CF911F91FF90EF90DF90CF90BF90D2
S1133F40AF908F907F906F905F904F903F902F90A5
S1133F500895813384F08A3314F4805308958234AD
S1133F6064F0873414F487530895823644F0873616
S1133F7044F48755089580E008958AE008958AE01E
S1133F8008958FE008951F93CF93DF93EC01C60F3C
S1133F90D11D8881DEDF182F8981DBDF90E1199F35
S1133FA0800D1124DF91CF911F910895E82FF0E047
S1133FB0ED5AFD4F63812081862F90E0A0E0B0E0B0
S1133FC0B22B2181A22B2281BC01CD01722B089539
S1133FD01F93CF93DF93C62F4FEF5FEFBA01409348
S1133FE02001509321016093220170932301CC237B
S1133FF071F1182FE82FF92F8FEF9FEFDC01D8E034
S113400031912D2FAC01BD01432740FF0DC0B69562
S1134010A7959795879540E2842743E8942748EB32
S1134020A4274DEEB42704C0B695A7959795879518
S11340303695215039F72E2F211B2C1708F3809326
S1134040200190932101A0932201B0932301809138
S1134050200190912101A0912201B0912301BC0182
S1134060CD016095709580959095DF91CF911F91CA
S113407008951F920F920FB60F9211248F939F935E
S1134080809178009091790090931F0180931E0194
S11340909F918F910F900FBE0F901F901895579A74
S11340A008952F923F924F925F926F927F928F92D8
S11340B09F92AF92BF92CF92DF92EF92FF920F93B3
S11340C01F93CF93DF93CDB7DEB728970FB6F8943D
S11340D0DEBF0FBECDBF7B01042F442309F497C07C
S11340E0BC0180E090E0EED36D837E838F8398875C
S11340F020E030E44CE955E49BD42B013C01B6D3D9
S11341004B015C0120E030E040E85FE3C301B20111
S1134110A9D388231CF491E080E002C0982D892D56
S1134120292E382E10E0C701A0E0B0E089839A83DD
S1134130AB83BC835F9A20E030E040E85FE3C301D7
S1134140B20190D3882304F120E03FEF4FE757E416
S1134150C301B20169D41816BCF420E030E040E297
S113416051E46D817E818F81988562D47FD36115FE
S1134170710569F084EF91E00197F1F761507109DD
S113418061157105B9F703C0C1010197F1F75F9893
S113419069817A818B819C8195D34B015C0120E0FC
S11341A030E44CE955E444D46B017C0120E030E078
S11341B040E85FE357D3882314F120E03FEF4FE753
S11341C057E4C701B60130D41816ACF420E030E04F
S11341D040E251E4C501B4012BD448D36115710503
S11341E099F084EF91E00197F1F76150710961153D
S11341F07105B9F709C0C701B60138D302C061E03F
S113420070E0CB010197F1F71F5F101393CF28964D
S11342100FB6F894DEBF0FBECDBFDF91CF911F91D3
S11342200F91FF90EF90DF90CF90BF90AF909F9051
S11342308F907F906F905F904F903F902F90089554
S113424041E068EC70E082E390E02BDFF9CFCF939C
S11342508BE29CE03BDC60914C0283E592E072DCF3
S113426060914C0283E592E046D4C82F87E19CE03C
S11342702DDC6C2F83E592E065DC43E552E060E0E1
S11342808C2F0E944C11CF910895CF92DF92EF9220
S1134290FF920F931F93FC01C080D180E280F380D2
S11342A0C416D506E606F70620F4408351836283DC
S11342B07383408151816281738104171507260736
S11342C0370720F400831183228333831F910F91D6
S11342D0FF90EF90DF90CF900895CF92DF92EF920E
S11342E0FF920F931F93FC01C080D180E280F38082
S11342F0C416D506E606F70624F440835183628388
S113430073834081518162817381041715072607E5
S1134310370724F400831183228333831F910F9181
S1134320FF90EF90DF90CF900895E1E0F0E0042E4D
S113433002C0EE0FFF1F0A94E2F7319728E030E045
S1134340241B3109261B3109AF0102C0440F551F3C
S11343502A95E2F79A01209582230895E0E2F0E09D
S1134360E21BF109DF01A41BB109AD01DC01CB01A2
S113437004C0B695A795979587954A95D2F741E0DD
S113438050E0BA0102C0660F771F2A95E2F79B013D
S11343902150822308953F924F925F926F927F92B1
S11343A08F929F92AF92BF92CF92DF92EF92FF9241
S11343B00F931F93CF93DF936B0189015C01B69434
S11343C0A794B694A794B694A79487709927461790
S11343D0570748F0EC01C60FD71F209729F4412C4A
S11343E0512C320149C02CDF98EF960F892E880E8C
S11343F0412C512C3201912C7901EA0CFB1C382CF4
S11344000115110529F4C501890D911D56D604C065
S1134410F701E90DF11D808190E0A0E0B0E03320C8
S113442064F004C0880F991FAA1FBB1F3A94D2F7E7
S1134430480E591E6A1E7B1E11C0432D55274195F7
S11344400CF45095042E04C0B695A79597958795BE
S11344500A94D2F7480E591E6A1E7B1E939458EF95
S1134460850E892D90E0880F991F880F991F880F5A
S1134470991F8C179D0718F280E2C816D104C0F466
S113448081E090E0A0E0B0E09C01AD0104C0220F07
S1134490331F441F551FCA94D2F769017A0131E0D2
S11344A0C31AD108E108F1084C205D206E207F205A
S11344B0C301B201DF91CF911F910F91FF90EF9053
S11344C0DF90CF90BF90AF909F908F907F906F9030
S11344D05F904F903F900895BF92CF92DF92EF92FA
S11344E0FF920F931F93CF93DF938B01B42EE901B7
S11344F06C01D694C794D694C794D694C7947C017F
S113450027E0E222FF246830710568F4209719F44B
S1134510C601D3D504C0DE01AC0DBD1D8C91402F66
S11345206E2D03DF01C080E0EB2DF0E028E030E0E9
S1134530201B310B2E193F09AF0102C0440F551F38
S11345402A95E2F7682F642B209719F4C601BDD58C
S113455003C0CC0DDD1D6883DF91CF911F910F91B6
S1134560FF90EF90DF90CF90BF9008954F925F92AD
S11345706F927F92AF92BF92CF92DF92EF92FF92AF
S11345800F931F93CF93DF93CDB7DEB728970FB662
S1134590F894DEBF0FBECDBF29013A01ED82FE8241
S11345A00F831887A6019501F6DE69837A838B83CE
S11345B09C830D811E812F813885B301A201CE0118
S11345C0019663DE69817A818B819C8128960FB67E
S11345D0F894DEBF0FBECDBFDF91CF911F910F9135
S11345E0FF90EF90DF90CF90BF90AF907F906F904F
S11345F05F904F900895AF92BF92CF92DF92EF9267
S1134600FF920F931F93CF93C82FA12CB12C6894C2
S1134610CC24C3F8D12CE12CF12C8701EA9420E0BE
S113462030E0A90168E070E080E090E09FDFC6130D
S113463007DECF911F910F91FF90EF90DF90CF9005
S1134640BF90AF9008952F923F924F925F926F92D6
S11346507F928F929F92AF92BF92CF92DF92EF920E
S1134660FF920F931F93CF93DF9300D000D0CDB769
S1134670DEB73B0149015A0117012801960140E2C6
S113468050E089DE21E0621A71088B019C01062C3E
S113469004C036952795179507950A94D2F700FF1D
S11346A00EC00FEF1FEF980104C0000F111F221F4F
S11346B0331F6A94D2F7602B712B822B932B69835F
S11346C07A838B839C8392018101B501A401CE017D
S11346D0019603DE69817A818B819C810F900F9012
S11346E00F900F90DF91CF911F910F91FF90EF905A
S11346F0DF90CF90BF90AF909F908F907F906F90FE
S11347005F904F903F902F9008952F923F924F9239
S11347105F927F928F929F92AF92BF92CF92DF92DD
S1134720EF92FF920F931F93CF93DF932C015B01C2
S113473048011C0187E02822332480E290E06C01C8
S1134740C61AD70ADA01C90104C0880F991FAA1F23
S1134750BB1FCA94D2F76C017D01C8E0D0E0C21936
S1134760D3096C177D0708F4EB017C2E2C2F40E055
S1134770C701B601F3DDDD278201087F9401482FCC
S1134780BE01C801820D931DA7DECA15DB0510F515
S1134790085F1F4F6894442443F8512CD501AC1B87
S11347A0BD0BED01A930B10510F0C42DD52D2C2F72
S11347B0472DC701B601D2DDBE0177279401482FEA
S11347C0C8018ADE7C0EC72DD0E0085F1F4FCA15D2
S11347D0DB0520F3DF91CF911F910F91FF90EF90B4
S11347E0DF90CF90BF90AF909F908F907F905F901D
S11347F04F903F902F900895CF92DF92EF92FF92C7
S11348000F931F93C0904D02D0904E02E0904F0240
S1134810F09050028FEFC81AD80AE80AF80AC0923A
S11348204D02D0924E02E0924F02F0925002C70124
S1134830B60124E630E040E050E00CD2672B682B50
S1134840692B49F400E010E0A701960168E170E0EB
S113485080E590E05ADF1F910F91FF90EF90DF9079
S1134860CF9008956CD008F481E00895BCD088F00E
S11348709F5790F0B92F9927B751A0F0D1F0660F48
S1134880771F881F991F1AF0BA95C9F712C0B13063
S113489081F0C3D0B1E00895C0C0672F782F882776
S11348A0B85F39F0B93FCCF3869577956795B395A2
S11348B0D9F73EF490958095709561957F4F8F4F11
S11348C09F4F0895E89409C097FB3EF49095809516
S11348D0709561957F4F8F4F9F4F9923A9F0F92FC2
S11348E096E9BB279395F695879577956795B79540
S11348F0F111F8CFFAF4BB0F11F460FF1BC06F5F26
S11349007F4F8F4F9F4F16C0882311F096E911C037
S1134910772321F09EE8872F762F05C0662371F058
S113492096E8862F70E060E02AF09A95660F771F6C
S1134930881FDAF7880F9695879597F90895990F48
S11349400008550FAA0BE0E8FEEF16161706E80755
S1134950F907C0F012161306E407F50798F0621B76
S1134960730B840B950B39F40A2661F0232B242B4B
S1134970252B21F408950A2609F4A140A6958FEF6A
S1134980811D811D089597F99F6780E870E060E0BC
S113499008959FEF80EC089500240A9416161706D4
S11349A018060906089500240A941216130614061C
S11349B005060895092E0394000C11F4882352F07F
S11349C0BB0F40F4BF2B11F460FF04C06F5F7F4F37
S11349D08F4F9F4F089557FD9058440F551F59F01E
S11349E05F3F71F04795880F97FB991F61F09F3FD8
S11349F079F087950895121613061406551FF2CF01
S1134A004695F1DF08C0161617061806991FF1CF50
S1134A1086957105610508940895E894BB27662777
S1134A207727CB0197F908958ADF08F48FEF08956B
S1134A300BD0C0CFB1DF28F0B6DF18F0952309F012
S1134A40A2CFA7CF1124EACFC6DFA0F3959FD1F35D
S1134A50950F50E0551F629FF001729FBB27F00D28
S1134A60B11D639FAA27F00DB11DAA1F649F66277D
S1134A70B00DA11D661F829F2227B00DA11D621FCC
S1134A80739FB00DA11D621F839FA00D611D221F86
S1134A90749F3327A00D611D231F849F600D211D6A
S1134AA0822F762F6A2F11249F5750408AF0E1F00D
S1134AB088234AF0EE0FFF1FBB1F661F771F881F56
S1134AC091505040A9F79E3F510570F05CCFA6CF9E
S1134AD05F3FECF3983EDCF3869577956795B79541
S1134AE0F795E7959F5FC1F7FE2B880F911D96956B
S1134AF0879597F90895EF92FF920F931F93CF93A1
S1134B00DF93EC01E62E862F8F7059F010E1181B0D
S1134B10412F50E060E070E0CE018E0D911DD4D0A5
S1134B20E10E69E174E089EF93E00E94000BF12C3F
S1134B30FE1408F54F2D50E0FF2099F020E030E0FE
S1134B408E01040F151FF801E20FF31FDF015097C8
S1134B5080819C91892780832F5F3F4F20313105CD
S1134B6091F769E174E0CE01840F951F0E9400095A
S1134B7080E1F80EDDCF8F2DDF91CF911F910F9142
S1134B80FF90EF900895EF92FF920F931F93CF93AE
S1134B90DF931F92CDB7DEB78C01462F862F8F701F
S1134BA011F0405F481B69E174E089EF93E04983A9
S1134BB00E94000B49814423F1F040517801E40E36
S1134BC0F11C69E174E0C70149830E9480064981B0
S1134BD0442389F020E030E0F701E20FF31FDF0106
S1134BE0509780819C91892780832F5F3F4F20318C
S1134BF0310591F7E0CF0F90DF91CF911F910F9185
S1134C00FF90EF900895AA1BBB1B51E107C0AA1F98
S1134C10BB1FA617B70710F0A61BB70B881F991F59
S1134C205A95A9F780959095BC01CD01089597FBFD
S1134C30072E16F4009406D077FD08D0E4DF07FCB5
S1134C4005D03EF4909581959F4F08957095619598
S1134C507F4F0895A1E21A2EAA1BBB1BFD010DC0B4
S1134C60AA1FBB1FEE1FFF1FA217B307E407F50718
S1134C7020F0A21BB30BE40BF50B661F771F881FF4
S1134C80991F1A9469F760957095809590959B018A
S1134C90AC01BD01CF010895A29FB001B39FC00133
S1134CA0A39F700D811D1124911DB29F700D811D54
S1134CB01124911D0895FB01DC0102C001900D92A5
S1134CC041505040D8F70895DC0101C06D93415024
S1134CD05040E0F70895AEE0B0E0E0E7F6E2B7C296
S1134CE00D891E898EE08C831A8309838FEF9FE7D9
S1134CF09E838D83AE01475E5F4F6F89788DCE01B1
S1134D00019608D0EF81F885E00FF11F10822E96EE
S1134D10E4E0B9C2ACE0B0E0EFE8F6E28AC27C01BC
S1134D206B018A01FC0117821682838181FFB0C165
S1134D30CE0101964C01F7019381F60193FD859113
S1134D4093FF81916F01882309F49EC1853239F460
S1134D5093FD859193FF81916F01853221F4B70111
S1134D6090E0D7D1E8CF512C312C20E02032A0F4B0
S1134D708B3269F030F4803259F0833269F4206167
S1134D802CC08D3239F0803339F4216026C0226082
S1134D90246023C0286021C027FD27C030ED380FD0
S1134DA03A3078F426FF06C0FAE05F9E300D1124F5
S1134DB0532E13C08AE0389E300D1124332E206206
S1134DC00CC08E3221F426FD5FC1206406C08C36EF
S1134DD011F4206802C0883641F4F60193FD8591F0
S1134DE093FF81916F018111C1CF982F9F7D9554BD
S1134DF0933028F40C5F1F4FFFE3F9830DC0833613
S1134E0031F0833771F0833509F057C021C0F801C0
S1134E10808189830E5F1F4F44244394512C540195
S1134E2014C03801F2E06F0E711CF801A080B1804B
S1134E3026FF03C0652D70E002C06FEF7FEFC50150
S1134E402C875CD12C0183012C852F77222E16C050
S1134E503801F2E06F0E711CF801A080B18026FFCA
S1134E6003C0652D70E002C06FEF7FEFC5012C8792
S1134E703AD12C012C852068222E830123FC19C0F1
S1134E80832D90E048165906A0F4B70180E290E023
S1134E9040D13A94F5CFF50127FC859127FE819105
S1134EA05F01B70190E035D131103A94F1E04F1A27
S1134EB051084114510479F7DEC0843611F0893663
S1134EC031F5F80127FF07C06081718182819381E8
S1134ED00C5F1F4F08C060817181882777FD809522
S1134EE0982F0E5F1F4F2F76B22E97FF09C0909513
S1134EF08095709561957F4F8F4F9F4F2068B22E9C
S1134F002AE030E0A40137D1A82EA81843C0853781
S1134F1029F42F7EB22E2AE030E025C0F22FF97F4B
S1134F20BF2E8F36C1F018F4883579F0ADC08037C4
S1134F3019F0883721F0A8C02F2F2061B22EB4FEBB
S1134F400DC08B2D8460B82E09C024FF0AC09F2F8A
S1134F509660B92E06C028E030E005C020E130E0BC
S1134F6002C020E132E0F801B7FE07C06081718120
S1134F70828193810C5F1F4F06C06081718180E044
S1134F8090E00E5F1F4FA401F6D0A82EA818FB2DA9
S1134F90FF77BF2EB6FE0BC02B2D2E7FA51450F429
S1134FA0B4FE0AC0B2FC08C02B2D2E7E05C07A2C9C
S1134FB02B2D03C07A2C01C0752C24FF0DC0FE01DB
S1134FC0EA0DF11D8081803311F4297E09C022FF8E
S1134FD006C07394739404C0822F867809F0739486
S1134FE023FD12C020FF06C05A2C731418F4530C6E
S1134FF05718732C731460F4B70180E290E02C8787
S113500088D073942C85F6CF731410F4371801C02C
S1135010312C24FF11C0B70180E390E02C8779D0B4
S11350202C8522FF16C021FF03C088E590E002C052
S113503088E790E0B7010CC0822F867851F021FDFB
S113504002C080E201C08BE227FD8DE2B70190E04F
S113505060D0A51430F4B70180E390E05AD05A949C
S1135060F8CFAA94F401EA0DF11D8081B70190E014
S113507050D0A110F6CF332009F45DCEB70180E201
S113508090E047D03A94F7CFF7018681978102C028
S11350908FEF9FEF2C96E2E1E8C0DC01CB01FC012D
S11350A0F999FECF06C0F2BDE1BDF89A319600B47D
S11350B00D9241505040B8F70895F999FECF92BD32
S11350C081BDF89A992780B50895262FF999FECFC6
S11350D01FBA92BD81BD20BD0FB6F894FA9AF99A11
S11350E00FBE01960895FC010590615070400110B7
S11350F0D8F7809590958E0F9F1F0895FC016150FD
S1135100704001900110D8F7809590958E0F9F1FE5
S113511008950F931F93CF93DF93182F092FEB015B
S11351208B8181FD03C08FEF9FEF20C082FF10C0F1
S11351304E815F812C813D81421753077CF4E881C5
S1135140F9819F012F5F3F4F39832883108306C065
S1135150E885F985812F0995892B29F72E813F81CF
S11351602F5F3F4F3F832E83812F902FDF91CF916D
S11351701F910F910895FA01AA27283051F1203187
S113518081F1E8946F936E7F6E5F7F4F8F4F9F4FD7
S1135190AF4FB1E03ED0B4E03CD0670F781F891F19
S11351A09A1FA11D680F791F8A1F911DA11D6A0FE7
S11351B0711D811D911DA11D20D009F468943F919A
S11351C02AE0269F11243019305D3193DEF6CF0199
S11351D00895462F4770405D4193B3E00FD0C9F75F
S11351E0F6CF462F4F70405D4A3318F0495D31FDCC
S11351F04052419302D0A9F7EACFB4E0A69597951F
S1135200879577956795BA95C9F7009761057105F4
S113521008959B01AC010A2E06945795479537953E
S11352202795BA95C9F7620F731F841F951FA01D98
S113523008952F923F924F925F926F927F928F9236
S11352409F92AF92BF92CF92DF92EF92FF920F9311
S11352501F93CF93DF93CDB7DEB7CA1BDB0B0FB61B
S1135260F894DEBF0FBECDBF09942A8839884888D8
S11352705F846E847D848C849B84AA84B984C8846E
S1135280DF80EE80FD800C811B81AA81B981CE0F65
S1135290D11D0FB6F894DEBF0FBECDBFED0108954A
S10752A0F894FFCFAC
S11352A41050726F63657373696E6720636F6D6DFD
S10952B4616E643A200063
S9030000FC
